:020000040800F2
:1000000000060020E10100086D0E0008ED0D00085B
:10001000450E0008ED0D0008190E0008E301000868
:10002000E3010008E3010008E301000841210008A2
:10003000E3010008E3010008E3010008E301000810
:10004000E3010008E3010008E3010008E301000800
:10005000E3010008E3010008093200083532000816
:10006000613200088D320008B9320008E30100084F
:10007000E3010008E3010008E3010008E3010008D0
:10008000E3010008E3010008E3010008E3010008C0
:10009000E3010008E3010008E3010008E53200087D
:1000A000E3010008E3010008E3010008E3010008A0
:1000B0007D300008E3010008E3010008E3010008C7
:1000C000E3010008E3010008E3010008E301000880
:1000D000E3010008E3010008E3010008E301000870
:1000E0004D330008E3010008E3010008E3010008C4
:1000F000E3010008E3010008E3010008E301000850
:10010000E3010008E3010008E3010008E30100083F
:10011000E3010008E3010008E3010008E30100082F
:10012000E3010008E3010008E3010008E30100081F
:10013000E3010008E3010008E3010008E30100080F
:10014000E3010008E3010008E30100087928000842
:10015000E3010008E3010008E3010008E3010008EF
:10016000E3010008E3010008E3010008E3010008DF
:10017000E3010008E3010008E3010008E3010008CF
:10018000E3010008E3010008E3010008E3010008BF
:10019000E3010008E3010008E3010008E3010008AF
:1001A000E3010008E3010008E3010008E30100089F
:1001B000E3010008E3010008E3010008E30100088F
:1001C000E3010008E3010008E3010008E30100087F
:1001D000E3010008E3010008E3010008E30100086F
:1001E00002E000F000F8FEE772B63A4880F30888B3
:1001F000394880F3098839484EF60851CEF200019B
:10020000086040F20000CCF200004EF63471CEF2ED
:1002100000010860BFF34F8FBFF36F8F40F2000003
:10022000C0F2F0004EF68851CEF200010860BFF334
:100230004F8FBFF36F8F4FF00000E1EE100A4EF6C4
:100240003C71CEF200010860062080F31488BFF3F1
:100250006F8F01F0F5FF01F0D1FF02F073FE4FF058
:1002600055301F491B4A91423CBF41F8040BFAE745
:100270001C49194A91423CBF41F8040BFAE71A495C
:100280001A4A1B4B9A423EBF51F8040B42F8040B2A
:10029000F8E700201749184A91423CBF41F8040B87
:1002A000FAE701F0AFFF02F0A1FE144C144DAC428E
:1002B00003DA54F8041B8847F9E700F041F8114CC1
:1002C000114DAC4203DA54F8041B8847F9E701F0FA
:1002D00097BF000000060020002200200000000858
:1002E00000000020000600207837000800220020CF
:1002F0004022002040220020A82D0020E00100081C
:10030000E0010008E0010008E00100082DE9F04FDD
:100310002DED108AC1F80CD0C3689D46BDEC108A43
:10032000BDE8F08F002383F311882846A047002002
:1003300001F012FBFEE701F08DFA00DFFEE700009E
:1003400038B501F0CDFE054601F0F0FE0446D8B9FF
:100350000F4B9D421AD001339D4218BF044641F213
:10036000883504BF01240025002001F0C3FE0CB134
:1003700000F076F800F010FD00F09EFB284600F03B
:10038000BFF800F06DF8F9E70025EDE70546EBE76B
:10039000010007B008B500F061FBA0F1200358424E
:1003A000584108BD07B541F21203022101A8ADF87A
:1003B000043000F071FB03B05DF804FB38B5202376
:1003C00083F311881748C3680BB101F04BFB164A41
:1003D000144800234FF47A7101F008FB002383F3E3
:1003E0001188124C236813B12368013B23606368B2
:1003F00013B16368013B63600D4D2B7833B96368BB
:100400007BB9022000F042FC322363602B78032B7F
:1004100007D163682BB9022000F038FC4FF47A73DF
:10042000636038BD40220020BD0300085C2300202B
:1004300054220020084B187003280CD8DFE800F085
:1004400008050208022000F017BC022000F00ABCD8
:10045000024B00225A607047542200205C23002087
:10046000234B244A10B51C46196801313FD0043390
:100470009342F9D16268A24239D31F4B9B6803F1C2
:10048000006303F540439A4231D2002000F02EFB76
:100490000220FFF7CFFF194B1A6C00221A64196E65
:1004A0001A66196E596C5A64596E5A665A6E5A69B0
:1004B00042F080025A615A6922F080025A615A69F8
:1004C0001A6942F000521A611A6922F000521A6148
:1004D0001B6972B64FF0E0232021C3F8084DD4E920
:1004E000003281F311889D4683F30888104710BDC0
:1004F00000C0000820C00008002200200038024090
:100500002DE9F04F93B0A94B00902022FF210AA8BB
:100510009D6800F0EBFBA64A1378A3B9A54801211A
:10052000C3601170202383F31188C3680BB101F0FD
:1005300099FAA14A9F4800234FF47A7101F056FAC4
:10054000002383F31188009B13B19C4B009A1A601F
:100550009B4A009C1378032B1EBF00231370974AFD
:100560004FF0000A18BF5360D3465646D1460120CB
:1005700000F082FB24B1914B1B68002B00F00F822E
:10058000002000F06BFA0390039B002BF2DB0120AC
:1005900000F068FB039B213B162BE8D801A252F820
:1005A00023F000BF0106000829060008BD06000868
:1005B0006F0500086F0500086F0500084507000873
:1005C000130900082D0800088F080008B708000864
:1005D000DD0800086F050008EF0800086F05000837
:1005E00061090008A10600086F050008A5090008B8
:1005F0000D060008A10600086F0500088F08000816
:100600000220FFF7C7FE002840F0F381009B022183
:10061000BAF1000F08BF1C4605A841F21233ADF82D
:10062000143000F039FAA2E74FF47A7000F016FAAD
:10063000071EEBDB0220FFF7ADFE0028E6D0013FEE
:10064000052F00F2D881DFE807F0030A0D101336FA
:1006500005230593042105A800F01EFA17E053486E
:100660000421F9E757480421F6E757480421F3E746
:100670004FF01C08404600F03BFA08F104080590D2
:10068000042105A800F008FAB8F12C0FF2D10120DE
:1006900000FA07F747EA0B0B5FFA8BFB4FF00009F4
:1006A00000F070FB26B10BF00B030B2B08BF0024EE
:1006B000FFF778FE5BE745480421CDE7002EA5D083
:1006C0000BF00B030B2BA1D10220FFF763FE0746B3
:1006D00000289BD0012000F009FA0220FFF7AAFEB3
:1006E00000265FFA86F8404600F010FA044688B10A
:1006F000404600F01BFA01360028F2D1BA46044603
:1007000041F21213022105A8ADF814303E4600F064
:10071000C3F92CE70120FFF78DFE2546234B9B688C
:10072000AB4207D9284600F0E3F9013040F066817A
:100730000435F3E7224B00251D70204BBA465D605F
:100740003E46ADE7002E3FF461AF0BF00B030B2BE1
:100750007FF45CAF0220FFF76DFE322000F07EF9DF
:10076000B0F10008FFF652AF18F003077FF44EAF68
:100770000E4A926808EB050393423FF647AFB8F57F
:10078000807F3FF743AF124B0193B84522DD4FF412
:100790007A7000F063F90390039A002AFFF636AFEF
:1007A000019B039A03F8012B0137EDE7002200209B
:1007B0005823002040220020BD0300085C230020B5
:1007C0005422002004220020082200200C220020B5
:1007D00058220020C820FFF7DDFD074600283FF41F
:1007E00015AF1F2D11D8C5F1200242450AAB25F0E7
:1007F000030028BF424683490192184400F050FA92
:10080000019A8048FF2100F071FA4FEAA8037D4960
:100810000193C8F38702284600F070FA06460028C4
:100820003FF46EAF019B05EB830539E70220FFF72C
:10083000B1FD00283FF4EAAE00F0A2F900283FF431
:10084000E5AE0027B846704B9B68BB4218D91F2FF6
:1008500011D80A9B01330ED027F0030312AA1344C8
:1008600053F8203C05934046042205A900F000FB04
:1008700004378046E7E7384600F03AF90590F2E79A
:10088000CDF81480042105A800F006F908E700233C
:10089000642104A8049300F0F5F800287FF4B6AEB4
:1008A0000220FFF777FD00283FF4B0AE049800F077
:1008B0004FF90590E6E70023642104A8049300F0B3
:1008C000E1F800287FF4A2AE0220FFF763FD0028C4
:1008D0003FF49CAE049800F04BF9EAE70220FFF7E2
:1008E00059FD00283FF492AE00F05AF9E1E70220EA
:1008F000FFF750FD00283FF489AE05A9142000F051
:1009000055F904210746049004A800F0C5F83946BB
:10091000B9E7322000F0A2F8071EFFF677AEBB075A
:100920007FF474AE384A926807EB090393423FF6AE
:100930006DAE0220FFF72EFD00283FF467AE27F0D2
:1009400003074F44B9453FF4ABAE484600F0D0F83A
:100950000421059005A800F09FF809F10409F1E7CA
:100960004FF47A70FFF716FD00283FF44FAE00F009
:1009700007F9002844D00A9B01330BD008220AA9AA
:10098000002000F0BBF900283AD02022FF210AA85D
:1009900000F0ACF9FFF706FD1C4800F0E3FF13B0D0
:1009A000BDE8F08F002E3FF431AE0BF00B030B2BA4
:1009B0007FF42CAE0023642105A8059300F062F8B3
:1009C000074600287FF422AE0220FFF7E3FC8046B2
:1009D00000283FF41BAEFFF7E5FC41F2883000F041
:1009E000C1FF059800F000FA464600F0CBF93C46FE
:1009F000BDE5064654E64FF0000907E6BA467FE635
:100A000037467DE65822002000220020A086010003
:100A100070B50F4B1B780133DBB2012B0C4611D89C
:100A20000C4D29684FF47A730E6AA2FB033201461B
:100A300022462846B047844204D1074B00221A7050
:100A4000012070BD4FF4FA7000F08CFF0020F8E731
:100A500010220020502500209023002007B50023FD
:100A6000024601210DF107008DF80730FFF7D0FF96
:100A700020B19DF8070003B05DF804FB4FF0FF3094
:100A8000F9E700000A4608B50421FFF7C1FF80F02E
:100A90000100C0B2404208BD30B4054C2368DD6996
:100AA000044B0A46AC460146204630BC604700BFB6
:100AB00050250020A086010070B501F003FA094E10
:100AC000094D3080002428683388834208D901F01A
:100AD000F3F92B6804440133B4F5404F2B60F2D393
:100AE00070BD00BF922300206423002001F0ACBA47
:100AF00000F1006000F540400068704700F10060C0
:100B0000920000F5404001F02BBA0000054B1A6836
:100B1000054B1B889B1A834202D9104401F0CCB9C3
:100B200000207047642300209223002038B5074D31
:100B300004462868204401F0C7F928B928682044F1
:100B4000BDE8384001F0D8B938BD00BF64230020AB
:100B500010F003030AD1B0F5047F05D200F1005074
:100B6000A0F51040D0F80038184670470023FBE786
:100B700000F10050A0F51040D0F8100A70470000B6
:100B8000064991F8243033B10023086A81F82430F3
:100B90000822FFF7B3BF0120704700BF6823002081
:100BA000014B1868704700BF002004E070B52A4B65
:100BB0001B68C3F30B0204461B0C62B140F21340E6
:100BC000824230D040F2194082422ED040F2214081
:100BD00082422CD10322214D0C2000FB0252556889
:100BE00042F20102934224D0B3F5805F23D041F258
:100BF0000102934221D041F2030293421FD041F2FD
:100C00000702934214BF3F233123013C0C44013DB2
:100C10000A46A24215D215F9016F501C9EB100F888
:100C2000016C0246F5E70122D5E70222D3E70C4D1D
:100C3000D6E73323E9E74123E7E75A23E5E75923DA
:100C4000E3E7104605E02C258442157001D9901C7D
:100C50005370401A70BD00BF002004E078340008D3
:100C60004C340008022802BF024B4FF080729A6198
:100C7000704700BF00080240022802BF024B4FF439
:100C800080729A61704700BF00080240022801BFCD
:100C9000024A536983F4807353617047000802402D
:100CA00010B50023934203D0CC5CC4540133F9E760
:100CB00010BD000010B5013810F9013F3BB191F9AA
:100CC00000409C4203D11AB10131013AF4E71AB154
:100CD00091F90020981A10BD1046FCE70346024621
:100CE000D01A12F9011B0029FAD1704702440346B9
:100CF000934202D003F8011BFAE770472DE9F8434D
:100D00001F4D144695F824200746884652BBDFF84D
:100D100070909CB395F824302BB92022FF214846CF
:100D20002F62FFF7E3FF95F82400C0F10802A2420A
:100D300028BF2246D6B24146920005EB8000FFF75D
:100D4000AFFF95F82430A41B1E44F6B2082E1744BA
:100D50009044E4B285F82460DBD1FFF711FF00284E
:100D6000D7D108E02B6A03EB82038342CFD0FFF791
:100D700007FF0028CBD10020BDE8F8830120FBE766
:100D800068230020024B1A78024B1A70704700BF8C
:100D9000902300201022002010B50F4C0F4800F0C7
:100DA000F7F821460D4800F01FF924680C48626DE1
:100DB000D2F8043843F00203C2F8043800F0D2FD40
:100DC0000849204600F016FA626DD2F8043823F084
:100DD0000203C2F8043810BD6C350008502500200D
:100DE00040420F00743500087047000000B59BB00A
:100DF000EFF3098168226846FFF752FFEFF305839E
:100E0000044B9A6BDA6A9A6A9A6A9A6A9A6A9A6A36
:100E10009B6AFEE700ED00E000B59BB0EFF30981AF
:100E200068226846FFF73CFFEFF30583044B9A6B9B
:100E30009A6A9A6A9A6A9A6A9A6A9B6AFEE700BFF5
:100E400000ED00E000B59BB0EFF309816822684631
:100E5000FFF726FFEFF30583034B5A6B9A6A9A6AF2
:100E60009A6A9A6A9B6AFEE700ED00E0FEE70000DE
:100E700030B5094D0A4491420DD011F8013B58405C
:100E8000082340F30004013B2C4013F0FF0384EAE5
:100E90005000F6D1EFE730BD2083B8ED026843681B
:100EA0001143016003B118477047000013B5446B4C
:100EB000D4F894341A681178042915D1217C0229B8
:100EC00012D11979128901238B4013420CD101A947
:100ED00004F14C0001F03CFFD4F89444019B2179CB
:100EE0000246206800F0CEF902B010BD143001F0C7
:100EF000BFBE00004FF0FF33143001F0B9BE000058
:100F00004C3001F091BF00004FF0FF334C3001F046
:100F10008BBF0000143001F08DBE00004FF0FF3198
:100F2000143001F087BE00004C3001F05DBF0000BE
:100F30004FF0FF324C3001F057BF000000207047E7
:100F400010B5D0F894341A6811780429044617D1E2
:100F5000017C022914D15979528901238B40134213
:100F60000ED1143001F020FE024648B1D4F894446A
:100F70004FF4807361792068BDE8104000F070B9CB
:100F800010BD0000406BFFF7DBBF000070470000A2
:100F90007FB5124B036000234360C0E90233012593
:100FA00002260F4B057404460290019300F184025F
:100FB000294600964FF48073143001F0D1FD094B9F
:100FC0000294CDE9006304F523724FF4807329463F
:100FD00004F14C0001F098FE04B070BDA834000884
:100FE000850F0008AD0E00080B68202282F31188DF
:100FF0000A7903EB820290614A79093243F82200B0
:101000008A7912B103EB8203986102230374C0F85A
:101010009414002383F311887047000038B5037FD0
:10102000044613B190F85430ABB9201D01250221BC
:10103000FFF734FF04F1140025776FF0010100F091
:10104000B9FC84F8545004F14C006FF00101BDE884
:10105000384000F0AFBC38BD10B501210446043063
:10106000FFF71CFF0023237784F8543010BD0000E5
:1010700038B504460025143001F08AFD04F14C0017
:10108000257701F059FE201D84F854500121FFF707
:1010900005FF2046BDE83840FFF752BF90F84430C6
:1010A00003F06003202B07D190F84520212A4FF050
:1010B000000303D81F2A06D800207047222AFBD13C
:1010C000C0E90E3303E0034A82630722C26303646C
:1010D000012070471122002037B5D0F894341A68E7
:1010E0001178042904461AD1017C022917D11979F3
:1010F000128901238B40134211D100F14C0528467F
:1011000001F0DAFE58B101A9284601F021FED4F819
:101110009444019B21790246206800F0B3F803B0A3
:1011200030BD0000F0B500EB810385B09E69044638
:101130000D46FEB1202383F3118804EB8507301D93
:101140000821FFF7ABFEFB685B691B6806F14C00EA
:101150001BB1019001F00AFE019803A901F0F8FD0E
:10116000024648B1039B2946204600F08BF8002335
:1011700083F3118805B0F0BDFB685A691268002A34
:10118000F5D01B8A013B1340F1D104F14402EAE798
:10119000093138B550F82140DCB1202383F31188A0
:1011A000D4F894241368527903EB8203DB689B69BB
:1011B0005D6845B104216018FFF770FE294604F10F
:1011C000140001F0FBFC2046FFF7BAFE002383F376
:1011D000118838BD7047000001F0A8B801230370E2
:1011E0000023C0E90133C36183620362C3624362C7
:1011F0000363704738B50446202383F31188002524
:10120000C0E90355C0E90555416001F09FF802238C
:10121000237085F3118838BD70B500EB8103054656
:101220005069DA600E46144618B110220021FFF70B
:101230005DFDA06918B110220021FFF757FD31466E
:101240002846BDE8704001F04BB90000826802F00A
:10125000011282600022C0E90422826101F0CCB94F
:10126000F0B400EB81044789E4680125A4698D404E
:101270003D43458123600023A2606360F0BC01F020
:10128000E7B90000F0B400EB81040789E4680125A8
:1012900064698D403D43058123600023A260636043
:1012A000F0BC01F061BA000070B5022300250446CD
:1012B0000370C0E90255C0E90455C564856180F832
:1012C000345001F0A9F863681B6823B12946204611
:1012D000BDE87040184770BD037880F85030052392
:1012E000037043681B6810B504460BB1042198478E
:1012F0000023A36010BD000090F8502043680270E6
:101300001B680BB1052118477047000070B590F8B5
:101310003430044613B1002380F8343004F1440221
:10132000204601F08BF963689B68B3B994F84430A8
:1013300013F0600535D00021204601F0DDFB0021CF
:10134000204601F0CFFB63681B6813B106212046DD
:101350009847062384F8343070BD2046984700280B
:10136000E4D0B4F84A30E26B9A4288BFE36394F960
:101370004430E56B002B4FF0200380F20381002DF9
:1013800000F0F280092284F8342083F311880021D0
:10139000D4E90E232046FFF775FF002383F311885D
:1013A000DAE794F8452003F07F0343EA022340F292
:1013B0000232934200F0C58021D8B3F5807F48D037
:1013C0000DD8012B3FD0022B00F09380002BB2D11F
:1013D00004F14C02A2630222E2632364C1E7B3F585
:1013E000817F00F09B80B3F5407FA4D194F8463014
:1013F000012BA0D1B4F84C3043F0020332E0B3F536
:10140000006F4DD017D8B3F5A06F31D0A3F5C063EE
:10141000012B90D8636894F846205E6894F84710D2
:10142000B4F848302046B047002884D04368A3630E
:101430000368E3631AE0B3F5106F36D040F602425A
:1014400093427FF478AF5C4BA3630223E3630023F2
:10145000C3E794F84630012B7FF46DAFB4F84C30FD
:1014600023F00203C4E90E55A4F84C30256478E754
:10147000B4F84430B3F5A06F0ED194F8463084F838
:101480004E30204601F020F863681B6813B101213B
:1014900020469847032323700023C4E90E339CE7BA
:1014A00004F14F03A3630123C3E72378042B10D176
:1014B000202383F311882046FFF7C8FE85F31188A7
:1014C0000321636884F84F5021701B680BB12046DC
:1014D000984794F84630002BDED084F84F30042330
:1014E000237063681B68002BD6D0022120469847E2
:1014F000D2E794F848301D0603F00F0120460AD5C4
:1015000001F08EF8012804D002287FF414AF2B4B91
:101510009AE72B4B98E701F075F8F3E794F846301B
:10152000002B7FF408AF94F8483013F00F01B3D0CC
:101530001A06204602D501F0F3FAADE701F0E6FA0B
:10154000AAE794F84630002B7FF4F5AE94F84830C3
:1015500013F00F01A0D01B06204602D501F0CCFAF3
:101560009AE701F0BFFA97E7142284F8342083F356
:1015700011882B462A4629462046FFF771FE85F33F
:101580001188E9E65DB1152284F8342083F31188CF
:101590000021D4E90E232046FFF762FEFDE60B2270
:1015A00084F8342083F311882B462A4629462046A6
:1015B000FFF768FEE3E700BFD8340008D034000826
:1015C000D434000838B590F834300446002B3ED0AF
:1015D000063BDAB20F2A34D80F2B32D8DFE803F0FB
:1015E0003731310822323131313131313131373710
:1015F000C56BB0F84A309D4214D2C3681B8AB5FB54
:10160000F3F203FB12556DB9202383F311882B46A7
:101610002A462946FFF736FE85F311880A2384F807
:1016200034300EE0142384F83430202383F31188FF
:1016300000231A4619462046FFF712FE002383F3C3
:10164000118838BD036C03B198470023E7E70021F8
:10165000204601F051FA0021204601F043FA636868
:101660001B6813B10621204698470623D7E70000E0
:1016700010B590F83430142B044629D017D8062B17
:1016800005D001D81BB110BD093B022BFBD80021AE
:10169000204601F031FA0021204601F023FA636868
:1016A0001B6813B1062120469847062319E0152B25
:1016B000E9D10B2380F83430202383F311880023F1
:1016C0001A461946FFF7DEFD002383F31188DAE797
:1016D000C3689B695B68002BD5D1036C03B1984745
:1016E000002384F83430CEE7024B0022C3E90033F4
:1016F0009A60704794230020002303748268054B8E
:101700001B6899689142FBD25A680360426010607E
:10171000586070479423002008B5202383F3118874
:10172000037C032B05D0042B0DD02BB983F3118838
:1017300008BD436900221A604FF0FF334361FFF791
:10174000DBFF0023F2E7D0E9003213605A60F3E7D1
:10175000002303748268054B1B6899689142FBD88B
:101760005A680360426010605860704794230020FC
:10177000054B19690874186802681A60536018618B
:1017800001230374FEF7C2BD9423002030B54B1C27
:101790000B4D87B0044610D02B690A4A01A800F00F
:1017A00025F92046FFF7E4FF049B13B101A800F0E0
:1017B00059F92B69586907B030BDFFF7D9FFF8E731
:1017C000942300201917000838B50C4D41612B698E
:1017D00081689A689142044603D8BDE83840FFF713
:1017E0008BBF1846FFF7B4FF01232C610146237419
:1017F0002046BDE83840FEF789BD00BF9423002095
:10180000044B1A681B6990689B68984294BF00203B
:10181000012070479423002010B5084C23682069EC
:101820001A6822605460012223611A74FFF790FF46
:1018300001462069BDE81040FEF768BD94230020F2
:1018400008B5FFF7DDFF18B1BDE80840FFF7E4BFBA
:1018500008BD0000FFF7E0BFFEE7000010B50C4C2C
:10186000FFF742FF00F0B4F80A498022204600F05A
:101870003BF8012344F8180C037400F071FC0023BA
:1018800083F3118862B60448BDE8104000F04CB8FC
:10189000BC230020DC340008EC34000800F01CB944
:1018A000EFF3118020B9EFF30583202282F3118832
:1018B0007047000010B530B9EFF30584C4F3080495
:1018C00014B180F3118810BDFFF7BAFF84F31188BB
:1018D000F9E70000034A516853685B1A9842FBD845
:1018E000704700BF001000E0826002220282704751
:1018F0008368A3F17C0243F80C2C026943F83C2C6A
:10190000426943F8382C074A43F81C2CC26843F854
:10191000102C022203F8082C002203F8072CA3F154
:10192000180070472503000810B5202383F31188A1
:10193000FFF7DEFF00210446FFF746FF002383F395
:101940001188204610BD0000024B1B6958610F2012
:10195000FFF70EBF94230020202383F31188FFF7A5
:10196000F3BF000008B50146202383F31188082047
:10197000FFF70CFF002383F3118808BD49B1064B24
:1019800042681B6918605A60136043600420FFF7C7
:10199000FDBE4FF0FF30704794230020036898424B
:1019A00006D01A680260506059611846FFF7A4BE5D
:1019B0007047000038B504460D462068844200D1C7
:1019C00038BD036823605C604561FFF795FEF4E76E
:1019D000054B03F11402C3E905224FF0FF31002249
:1019E000C3E90712704700BF9423002070B51C4E56
:1019F000C0E9032305460C4601F090FA334653F83C
:101A0000142F9A420DD13062C5E901242A600A2CB4
:101A10002CBF00190A30C6E90555BDE8704001F039
:101A20006BBA316A431AE31838BF1C469368A34265
:101A300002D9081901F06EFA73699A6894420CD8B9
:101A40005A68AC602B606A6015609A685D60121B12
:101A50009A604FF0FF33F36170BD1B68A41AECE786
:101A60009423002038B51B4C636998420DD0D0E90F
:101A7000003213605A6000228168C2609A680A448A
:101A80009A604FF0FF33E36138BD2246036842F8A5
:101A9000143F002193425A60C16003D1BDE8384031
:101AA00001F032BA9A688168256A0A449A6001F0A6
:101AB00035FA63699A68411B8A42E5D9AB181D1A49
:101AC000092D206A98BF01F10A02BDE83840104490
:101AD00001F020BA942300202DE9F041184C002792
:101AE00004F11406656901F019FA236AAA68C11A9B
:101AF0008A4215D813442362D5E9003213605A6034
:101B00006369D5F80C80EF60B34201D101F0FCF9B4
:101B100087F311882869C047202383F31188E1E700
:101B20006169B14209D013441B1ABDE8F0410A2B88
:101B30002CBFC0180A3001F0EDB9BDE8F08100BF3C
:101B40009423002000207047FEE70000704700004B
:101B50004FF0FF307047000002290CD0032904D059
:101B60000129074818BF00207047032A05D80548F7
:101B700000EBC2007047044870470020704700BF68
:101B8000D0350008202200208435000870B59AB0B6
:101B90000546084601A9144600F0C2F801A8FFF75F
:101BA0009DF8431C5B00C5E9003400222370032329
:101BB0006370C6B201AB02341046D1B28E4204F15A
:101BC000020401D81AB070BD13F8011B04F8021CFE
:101BD00004F8010C0132F0E708B5202383F31188E3
:101BE0000348FFF779FA002383F3118808BD00BF8B
:101BF0005025002090F8443003F01F02012A07D13D
:101C000090F845200B2A03D10023C0E90E3315E0DC
:101C100003F06003202B08D1B0F848302BB990F8BE
:101C20004520212A03D81F2A04D8FFF737BA222AD1
:101C3000EBD0FAE7034A82630722C2630364012000
:101C4000704700BF1822002007B5052917D8DFE824
:101C500001F0191603191920202383F31188104A63
:101C600001900121FFF7D8FA01980E4A0221FFF7EF
:101C7000D3FA0D48FFF7FCF9002383F3118803B072
:101C80005DF804FB202383F311880748FFF7C6F9AA
:101C9000F2E7202383F311880348FFF7DDF9EBE730
:101CA00024350008483500085025002038B50C4D73
:101CB0000C4C0D492A4604F10800FFF767FF05F1B7
:101CC000CA0204F110000949FFF760FF05F5CA7266
:101CD00004F118000649BDE83840FFF757BF00BFC0
:101CE000182A002020220020043500080E350008A4
:101CF0001935000870B5044608460D46FEF7EEFF9C
:101D0000C6B22046013403780BB9184670BD32467E
:101D10002946FEF7CFFF0028F3D10120F6E70000A7
:101D20002DE9F04705460C46FEF7D8FF2B49C6B211
:101D30002846FFF7DFFF08B10636F6B228492846E5
:101D4000FFF7D8FF08B11036F6B2632E0BD8DFF8D4
:101D50008C80DFF88C90234FDFF894A02E7846B962
:101D60002670BDE8F08729462046BDE8F04701F01F
:101D700065BB252E2ED1072241462846FEF79AFF45
:101D800070B9194B224603F10C0153F8040B42F8C9
:101D9000040B8B42F9D11B78137007350D34DDE746
:101DA000082249462846FEF785FF98B90F4BA21C2A
:101DB000197809090232C95D02F8041C13F8011BE5
:101DC00001F00F015345C95D02F8031CF0D118342E
:101DD0000835C3E704F8016B0135BFE7F0350008AB
:101DE0001935000806360008F8350008107AFF1F7C
:101DF0001C7AFF1FBFF34F8F024AD368DB03FCD46A
:101E0000704700BF003C024008B5094B1B7873B90E
:101E1000FFF7F0FF074B1A69002ABFBF064A5A6056
:101E200002F188325A601A6822F480621A6008BD92
:101E3000762C0020003C02402301674508B50B4B7F
:101E40001B7893B9FFF7D6FF094B1A6942F000429D
:101E50001A611A6842F480521A601A6822F4805299
:101E60001A601A6842F480621A6008BD762C00205D
:101E7000003C02400B28F0B516D80C4C0C492378D6
:101E80007BB90C4D0E460C234FF0006255F8047BD5
:101E900046F8042B013B13F0FF033A44F6D101232B
:101EA000237051F82000F0BD0020FCE7A82C002092
:101EB000782C002018360008014B53F8200070479A
:101EC000183600080C2070470B2810B5044601D9BD
:101ED000002010BDFFF7CEFF064B53F82430184406
:101EE000C21A0BB90120F4E712680132F0D1043BA9
:101EF000F6E700BF183600080B2838B5044628D886
:101F0000FFF7CEFCFFF776FFFFF77EFF124AF323C1
:101F1000D360E300DBB243F4007343F002031361C8
:101F2000136943F48033136105462046FFF762FFCF
:101F3000FFF7A0FF094B53F8241000F0E9F82846FA
:101F4000FFF77CFFFFF7B6FC2046BDE83840FFF7FF
:101F5000BBBF002038BD00BF003C0240183600085F
:101F600012F001032DE9F04105460E4614464BD10F
:101F70008218B2F1016F61D8314B1B6813F0010375
:101F80005CD0304FFFF78CFCFFF73EFFF323FB6084
:101F9000FFF730FF314640F20128032C18D824F017
:101FA0000104284E0C446D1A40F20118A142336915
:101FB00005EB01072AD123F001033361FFF73EFF50
:101FC000FFF778FC0120BDE8F081043C0435E4E72C
:101FD000AB07E4D13B6923F440733B613B6943EABF
:101FE00008033B6151F8046B2E60BFF34F8FFFF77E
:101FF00001FF2B689E42E8D03B6923F001033B615F
:10200000FFF71CFFFFF756FC0020DCE723F44073CA
:102010003361336943EA080333610B883B80BFF3C4
:102020004F8FFFF7E7FE3F8831F8023BBFB2BB425C
:10203000BCD0336923F001033361E1E71846C2E7FE
:1020400000380240003C0240084908B50B7828B12E
:102050001BB9FFF7D9FE01230B7008BD002BFCD084
:10206000BDE808400870FFF7E9BE00BF762C0020ED
:1020700010B50244064BD2B2904200D110BD441CB0
:1020800000B253F8200041F8040BE0B2F4E700BFBF
:10209000502800400F4B30B51C6F240407D41C6F30
:1020A00044F400741C671C6F44F400441C670A4C21
:1020B000236843F4807323600244084BD2B29042F9
:1020C00000D130BD441C00B251F8045B43F82050ED
:1020D000E0B2F4E7003802400070004050280040B1
:1020E00007B5012201A90020FFF7C2FF019803B044
:1020F0005DF804FB13B50446FFF7F2FFA04205D0DC
:10210000012201A900200194FFF7C4FF02B010BD15
:1021100070470000034B1A681AB9034AD2F87428B2
:102120001A607047AC2C00200030024008B5FFF761
:10213000F1FF024B1868C0F3407008BDAC2C0020C2
:10214000EFF3098305494A6B22F001024A636833C1
:1021500083F30988002383F31188704700EF00E0C0
:10216000202080F3118862B60C4B0D4AD96821F407
:10217000E0610904090C0A43DA60D3F8FC2009493C
:1021800042F08072C3F8FC200A6842F001020A6043
:102190001022DA7783F82200704700BF00ED00E0DC
:1021A0000003FA05001000E010B5202383F3118826
:1021B0000E4B5B6813F4006314D0F1EE103AEFF3AA
:1021C0000984683C4FF08073E361094BDB6B236645
:1021D00084F30988FFF714FB10B1064BA36110BD0F
:1021E000054BFBE783F31188F9E700BF00ED00E042
:1021F00000EF00E0370300083A03000870470000D2
:10220000FEE700000A4B0B480B4A90420BD30B4BE6
:10221000DA1C121AC11E22F003028B4238BF0022C0
:102220000021FEF763BD53F8041B40F8041BECE7E4
:10223000B8370008A82D0020A82D0020A82D0020C8
:102240007047000070B5D0E915439E6800224FF03A
:10225000FF3504EB42135101D3F800090028BEBF3B
:10226000D3F8000940F08040C3F80009D3F8000B10
:102270000028BEBFD3F8000B40F08040C3F8000B2D
:10228000013263189642C3F80859C3F8085BE0D2DC
:102290004FF00113C4F81C3870BD00001D4B03EB58
:1022A00080022DE9F043D2F80CC05D6DDCF81420FB
:1022B000461CD2F800E005EB063605EB40185168E5
:1022C00071450AD3D5F83438012202FA00F023EA26
:1022D0000000C5F83408BDE8F083BCF81040AEEB50
:1022E0000103A34228BF2346D8F81849A4B2B3EB90
:1022F000840FF0D89468A4F1040959F8047F37607A
:10230000A4EB09071F44042FF7D81C440B44946026
:102310005360D4E7B02C0020890141F02001016115
:1023200003699B06FCD41220FFF7D4BA10B5054C04
:102330002046FEF753FF4FF0A0436365024BA365B1
:1023400010BD00BFB02C00206C36000870B50378BB
:10235000012B054650D12A4B446D98421BD1294B85
:102360005A6B42F080025A635A6D42F080025A65FD
:102370005A6D5A6942F080025A615A6922F080020D
:102380005A610E2143205B6900F0D4FB1E4BE360D1
:102390001E4BC4F800380023C4F8003EC02323605D
:1023A0006E6D4FF40413A3633369002BFCDA012331
:1023B00033610C20FFF78EFA3369DB07FCD412205F
:1023C000FFF788FA3369002BFCDA0026A66028465E
:1023D000FFF738FF6B68C4F81068DB68C4F814684E
:1023E000C4F81C684BB90A4BA3614FF0FF3363611B
:1023F000A36843F00103A36070BD064BF4E700BF80
:10240000B02C00200038024040140040030020029D
:10241000003C30C0083C30C0F8B5446D0546002192
:102420002046FFF779FFA96D00234FF001128F6856
:10243000C4F834384FF00066C4F81C284FF0FF3061
:1024400004EB431201339F42C2F80069C2F8006BEB
:10245000C2F80809C2F8080BF2D20B686A6DEB6586
:10246000636210231361166916F01006FBD1122067
:10247000FFF730FAD4F8003823F4FE63C4F80038CC
:10248000A36943F4402343F01003A3610923C4F874
:102490001038C4F814380A4BEB604FF0C043C4F84E
:1024A000103B084BC4F8003BC4F81069C4F800396D
:1024B000EB6D03F1100243F48013EA65A362F8BDEB
:1024C0004836000840800010426D90F84E10D2F857
:1024D000003823F4FE6343EA0113C2F80038704762
:1024E0002DE9F84300EB8103456DDA68166806F0C4
:1024F0000306731E022B05EB41130C4680460FFAB0
:1025000081F94FEA41104FF00001C3F8101B4FF062
:10251000010104F1100398BFB60401FA03F39169B5
:102520008EBF334E06F1805606F5004600293AD09C
:10253000578A04F15801490137436F50D5F81C18E8
:102540000B43C5F81C382B180021C3F81019536928
:102550000127611EA7409BB3138A928B9B08012A17
:1025600088BF5343D8F85C20981842EA034301F12E
:10257000400205EB8202C8F85C0021465360284601
:10258000FFF7CAFE08EB8900C3681B8A43EA84533D
:10259000483464011E432E51D5F81C381F43C5F83A
:1025A0001C78BDE8F88305EB4917D7F8001B21F428
:1025B0000041C7F8001BD5F81C1821EA0303C0E747
:1025C00004F13F0305EB83030A4A5A60284621467B
:1025D000FFF7A2FE05EB4910D0F8003923F40043C1
:1025E000C0F80039D5F81C3823EA0707D7E700BF41
:1025F0000080001000040002826D1268C265FFF7BF
:1026000021BE00005831436D49015B5813F400406E
:1026100004D013F4001F0CBF0220012070470000FB
:102620004831436D49015B5813F4004004D013F462
:10263000001F0CBF022001207047000000EB810149
:10264000CB68196A0B6813604B68536070470000D1
:1026500000EB810330B5DD68AA691368D36019B94E
:10266000402B84BF402313606B8A1468426D1C4466
:10267000013CB4FBF3F46343033323F0030302EBA5
:10268000411043EAC44343F0C043C0F8103B2B68F9
:1026900003F00303012B09B20ED1D2F8083802EB84
:1026A000411013F4807FD0F8003B14BF43F08053F7
:1026B00043F00053C0F8003B02EB4112D2F8003B5C
:1026C00043F00443C2F8003B30BD00002DE9F04167
:1026D000244D6E6D06EB40130446D3F8087BC3F817
:1026E000087B38070AD5D6F81438190706D505EB44
:1026F00084032146DB6828465B689847FA071FD5A4
:10270000D6F81438DB071BD505EB8403D968CCB9A0
:102710008B69488A5A68B2FBF0F600FB16228AB928
:102720001868DA6890420DD2121AC3E900242023F7
:1027300083F311880B482146FFF78AFF84F3118841
:10274000BDE8F081012303FA04F26B8923EA020356
:102750006B81CB68002BF3D021460248BDE8F041E5
:10276000184700BFB02C002000EB810370B5DD6876
:10277000436D6C692668E6604A0156BB1A444FF403
:102780000020C2F810092A6802F00302012A0AB2E6
:102790000ED1D3F8080803EB421410F4807FD4F86C
:1027A000000914BF40F0805040F00050C4F8000908
:1027B00003EB4212D2F8000940F00440C2F80009CD
:1027C000D3F83408012202FA01F10143C3F83418A6
:1027D00070BD19B9402E84BF4020206020682E8A29
:1027E0008419013CB4FBF6F440EAC44040F00050C8
:1027F0001A44C6E7F8B504461E48456D05EB441378
:10280000D3F80869C3F80869F10717D5D5F8103867
:10281000DA0713D500EB8403D9684B691F68DA68BF
:10282000974218D2D21B00271A605F60202383F3DF
:1028300011882146FFF798FF87F31188330617D5D3
:10284000D5F834280123A340134211D02046BDE817
:10285000F840FFF723BD012303FA04F2038923EABA
:10286000020303818B68002BE8D021469847E5E7F7
:10287000F8BD00BFB02C00202DE9F74F984C666DD5
:102880007569B3691D4015F48058756107D02046FD
:10289000FEF70AFD03B0BDE8F04FFFF785BC002D41
:1028A00012DAD6F8003E8E489F071EBFD6F8003ECB
:1028B00023F00303C6F8003ED6F8043823F00103E2
:1028C000C6F80438FEF718FD280505D58448FFF73B
:1028D000B9FC8348FEF700FDA9040CD5D6F80838EA
:1028E00013F0060FF36823F470530CBF43F4105336
:1028F00043F4A053F3602A0704D56368DB680BB187
:1029000077489847EB0274D4AF0227D5D4F8549097
:10291000DFF8CCB100274FF0010A09EB4712D2F8DB
:10292000003B03F44023B3F5802F11D1D2F8003BD4
:10293000002B0DDA62890AFA07F322EA03036381A6
:1029400004EB8703DB68DB6813B1394658469847C8
:10295000A36D01379B68FFB29F42DED9E80617D509
:10296000676D3A6AC2F30A1002F00F0302F4F01224
:10297000B2F5802F00F08880B2F5402F08D104EB2B
:1029800083030022DB681B6A07F5805790426DD1F4
:102990002903D6F8184813D5E20302D50020FFF723
:1029A00095FEA30302D50120FFF790FE670302D531
:1029B0000220FFF78BFE260302D50320FFF786FED9
:1029C0006D037FF567AFE00702D50020FFF712FF28
:1029D000A10702D50120FFF70DFF620702D50220F3
:1029E000FFF708FF23077FF555AF0320FFF702FF2E
:1029F00050E7636DDFF8E8B0019300274FF0010A5C
:102A0000A36D9B685FFA87F999453FF67DAF019BFF
:102A100003EB4913D3F8002902F44022B2F5802FCA
:102A200022D1D3F80029002A1EDAD3F8002942F077
:102A30009042C3F80029D3F80029002AFBDB606D1F
:102A40004946FFF769FC22890AFA09F322EA0303DF
:102A5000238104EB8903DB689B6813B14946584620
:102A600098474846FFF71AFC0137C9E7910708BFA6
:102A7000D7F80080072A98BF03F8018B02F1010202
:102A800098BF4FEA182881E7023304EB830207F569
:102A900080575268D2F818C0DCF80820DCE9001C26
:102AA000A1EB0C0C002188420AD104EB830463687B
:102AB0009B699A6802449A605A6802445A6067E7C0
:102AC00011F0030F08BFD7F800808C4588BF02F8CB
:102AD000018B01F1010188BF4FEA1828E3E700BF2D
:102AE000B02C0020436D03EB4111D1F8003B43F4BF
:102AF0000013C1F8003B7047436D03EB4111D1F85F
:102B0000003943F40013C1F800397047436D03EBFB
:102B10004111D1F8003B23F40013C1F8003B70478A
:102B2000436D03EB4111D1F8003923F40013C1F8D0
:102B30000039704700F1604303F561430901C9B2F0
:102B400083F80013012200F01F039A4043099B0001
:102B500003F1604303F56143C3F880211A607047B5
:102B600030B5039C0172043304FB0325C0E906530E
:102B7000049B03630021059BC160C0E90000C0E91C
:102B80000422C0E90842C0E90A11436330BD0000D5
:102B9000416A0022C0E90411C0E90A22C2606FF054
:102BA0000101FEF707BF0000D0E90432934201D1D2
:102BB000C2680AB9181D7047002070470369196080
:102BC000C2680132C260C2691344826903619342E0
:102BD00024BF436A03610021FEF7E0BE38B5044616
:102BE0000D46E3683BB16269131D1268A36213448A
:102BF000E362002007E0237A33B929462046FEF736
:102C0000BDFE0028EDDA38BD6FF00100FBE70000E3
:102C1000C368C269013BC36043691344826943616D
:102C2000934224BF436A436100238362036B03B171
:102C30001847704770B52023044683F31188866ACD
:102C40003EB9FFF7CBFF054618B186F31188284639
:102C500070BDA36AE26A13F8015BA362934202D3D8
:102C60002046FFF7D5FF002383F31188EFE700002C
:102C70002DE9F84F04460E46174698464FF02009B6
:102C800089F311880025AA46D4F828B0BBF1000FBB
:102C900009D141462046FFF7A1FF20B18BF31188EF
:102CA0002846BDE8F88FD4E90A12A7EB050B521AA3
:102CB000934528BF9346BBF1400F1BD9334601F122
:102CC000400251F8040B43F8040B9142F9D1A36A76
:102CD00040334036A3624035D4E90A239A4202D3F6
:102CE0002046FFF795FF8AF31188BD42D8D289F3B9
:102CF0001188C9E730465A46FDF7D2FFA36A5B4404
:102D00005E44A3625D44E7E710B5029C01720433A0
:102D100004FB0321C0E906130023C0E90A33039B27
:102D20000363049BC460C0E90000C0E90422C0E959
:102D30000842436310BD0000026AC260426AC0E9F3
:102D400004220022C0E90A226FF00101FEF732BE20
:102D5000D0E904239A4201D1C26822B9184650F83A
:102D6000043B0B607047002070470000C368C269D5
:102D70000133C3604369134482694361934224BFB2
:102D8000436A43610021FEF709BE000038B50446DE
:102D90000D46E3683BB123691A1DA262E269134440
:102DA000E362002007E0237A33B929462046FEF784
:102DB000E5FD0028EDDA38BD6FF00100FBE700000B
:102DC00003691960C268013AC260C269134482692A
:102DD0000361934224BF436A036100238362036B50
:102DE00003B118477047000070B520230D46044614
:102DF000114683F31188866A2EB9FFF7C7FF10B119
:102E000086F3118870BDA36A1D70A36AE26A01335C
:102E10009342A36204D3E16920460439FFF7D0FF4F
:102E2000002080F31188EDE72DE9F84F04460D46A8
:102E3000904699464FF0200A8AF311880026B3463F
:102E4000A76A4FB949462046FFF7A0FF20B187F394
:102E500011883046BDE8F88FD4E90A073A1AA8EB82
:102E60000607974228BF1746402F1BD905F140039C
:102E700055F8042B40F8042B9D42F9D1A36A403346
:102E8000A3624036D4E90A239A4204D3E16920467A
:102E90000439FFF795FF8BF311884645D9D28AF3A1
:102EA0001188CDE729463A46FDF7FAFEA36A3B446E
:102EB0003D44A3623E44E5E7D0E904239A4217D19A
:102EC000C3689BB1836A8BB1043B9B1A0ED013601D
:102ED000C368013BC360C3691A44836902619A42B3
:102EE00024BF436A036100238362012318467047AD
:102EF0000023FBE700F088B84FF0804300225863BE
:102F00001A610222DA6070474FF080430022DA60D3
:102F1000704700004FF08043586370474FF0804384
:102F2000586A70474B6843608B688360CB68C360A6
:102F30000B6943614B6903628B6943620B680360F1
:102F40007047000008B5264B26481A6940F2FF1169
:102F50000A431A611A6922F4FF7222F001021A610F
:102F60001A691A6B0A431A631A6D0A431A651E4AD4
:102F70001B6D1146FFF7D6FF02F11C0100F58060C2
:102F8000FFF7D0FF02F1380100F58060FFF7CAFFBC
:102F900002F1540100F58060FFF7C4FF02F17001F7
:102FA00000F58060FFF7BEFF02F18C0100F5806044
:102FB000FFF7B8FF02F1A80100F58060FFF7B2FF4C
:102FC00002F1C40100F58060FFF7ACFF02F1E001FF
:102FD00000F58060FFF7A6FFBDE8084000F09AB852
:102FE00000380240000002407836000808B500F0C2
:102FF00007FAFEF733FCFFF78DF8BDE80840FEF74F
:1030000055BE000070470000104B1A6C42F00102E0
:103010001A641A6E42F001021A660D4A1B6E93681A
:1030200043F0010393604FF0804353229A624FF0C4
:10303000FF32DA6200229A615A63DA605A60012232
:103040005A6108211A601C20FFF774BD0038024045
:10305000002004E04FF0804208B51169D3680B40AE
:10306000D9B2C9439B07116107D5202383F3118887
:10307000FEF714FC002383F3118808BD08B5FFF7A1
:10308000E9FFBDE80840FFF78FB800001F4B1A6941
:103090006FEAC2526FEAD2521A611A69C2F3080289
:1030A0001A614FF0FF301A695A69586100215A6954
:1030B00059615A691A6A62F080521A621A6A02F0F9
:1030C00080521A621A6A5A6A58625A6A59625A6A6D
:1030D0001A6C42F080521A641A6E42F080521A66DC
:1030E0001A6E0B4A106840F480701060186F00F47C
:1030F0004070B0F5007F1EBF4FF48030186719672D
:10310000536823F40073536000F05AB9003802404A
:1031100000700040334B4FF080521A64324A4FF433
:10312000404111601A6842F001021A601A68910762
:10313000FCD59A6822F003029A602A4B9A6812F032
:103140000C02FBD1196801F0F90119609A601A6844
:1031500042F480321A601A689203FCD55A6F42F02A
:1031600001025A671F4B5A6F9007FCD51F4A5A60DD
:103170001A6842F080721A601B4A53685904FCD5E1
:10318000184B1A689201FCD5194A9A60194B1A68B3
:10319000194B9A42194B21D1194A1168194A914287
:1031A0001CD140F205121A60144A136803F00F0391
:1031B000052BFAD10B4B9A6842F002029A609A688A
:1031C00002F00C02082AFAD15A6C42F480425A6486
:1031D0005A6E42F480425A665B6E704740F2057246
:1031E000E1E700BF0038024000700040085440078B
:1031F00000948838002004E011640020003C024064
:1032000000ED00E041C20F41084A08B5516913685A
:103210000B4003F00103536123B1054A13680BB15E
:1032200050689847BDE80840FEF7BEBF003C01402B
:10323000282D0020084A08B5516913680B4003F097
:103240000203536123B1054A93680BB1D0689847D4
:10325000BDE80840FEF7A8BF003C0140282D002033
:10326000084A08B5516913680B4003F00403536121
:1032700023B1054A13690BB150699847BDE808406E
:10328000FEF792BF003C0140282D0020084A08B5F7
:10329000516913680B4003F00803536123B1054AD9
:1032A00093690BB1D0699847BDE80840FEF77CBF31
:1032B000003C0140282D0020084A08B551691368D8
:1032C0000B4003F01003536123B1054A136A0BB19D
:1032D000506A9847BDE80840FEF766BF003C0140D1
:1032E000282D0020174B10B55A691C68144004F4AF
:1032F00078725A61A30604D5134A936A0BB1D06A57
:103300009847600604D5104A136B0BB1506B984771
:10331000210604D50C4A936B0BB1D06B9847E2059C
:1033200004D5094A136C0BB1506C9847A30504D51A
:10333000054A936C0BB1D06C9847BDE81040FEF77E
:1033400033BF00BF003C0140282D00201A4B10B5B0
:103350005A691C68144004F47C425A61620504D521
:10336000164A136D0BB1506D9847230504D5134AC7
:10337000936D0BB1D06D9847E00404D50F4A136EDE
:103380000BB1506E9847A10404D50C4A936E0BB153
:10339000D06E9847620404D5084A136F0BB1506F82
:1033A0009847230404D5054A936F0BB1D06F984713
:1033B000BDE81040FEF7F8BE003C0140282D00207B
:1033C000062108B50846FFF7B5FB06210720FFF7E1
:1033D000B1FB06210820FFF7ADFB06210920FFF70E
:1033E000A9FB06210A20FFF7A5FB06211720FFF7FE
:1033F000A1FBBDE8084006212820FFF79BBB000089
:1034000008B5FFF743FE00F00BF8FDF7E5FEFDF70A
:10341000BDFDFFF7F7FDBDE80840FFF76BBD0000FD
:103420000023054A19460133102BC2E9001102F1AD
:103430000802F8D1704700BF282D0020034611F87C
:10344000012B03F8012B002AF9D1704753544D3357
:1034500032463F3F3F00000053544D333246343034
:10346000780053544D3332463432780053544D3340
:103470003246343436585800000000004C340008FE
:103480003F00000013040000583400083F00000013
:1034900019040000623400083F000000210400000D
:1034A0006C3400083F00000000000000090F000815
:1034B000F50E0008310F00081D0F0008290F000845
:1034C000150F0008010F0008ED0E00083D0F000861
:1034D0000000000001000000000000006D61696E46
:1034E0000000000069646C6500000000E43400081E
:1034F000D8230020502500200100000059180008A2
:10350000000000004172647550696C6F74002542C0
:103510004F415244252D424C002553455249414CC0
:103520002500000002000000000000002511000836
:103530009111000840004000E8290020F8290020EF
:103540000200000000000000030000000000000076
:10355000D51100080000000010000000082A00201B
:10356000000000000100000000000000B02C00205E
:1035700001010200491C0008591B0008F51B000846
:10358000D91B0008430000008C35000809024300E5
:10359000020100C0320904000001020201000524FA
:1035A0000010010524010001042402020524060084
:1035B00001070582030800FF09040100020A000058
:1035C00000070501024000000705810240000000DD
:1035D00012000000D835000812011001020000405E
:1035E000091241570002010203010000040309040B
:1035F00025424F41524425007370656564796265C8
:103600006566347633003031323334353637383905
:103610004142434445460000004000000040000095
:103620000040000000400000000001000000020017
:103630000000020000000200000002000000020082
:103640000000020000000200000000000D1300084E
:10365000C51500087116000840004000102D00201C
:10366000102D002001000000202D0020800000000F
:103670004001000003000000000180420000000043
:10368000AAAAAAAA00010040FFFF00000000000053
:1036900000A00A000000000100000000AAAAAAAAD7
:1036A00000000001FFFF000000000000000000001B
:1036B0000000010000000000AAAAAAAA0000000061
:1036C000FFFE0000000000000000000000000000FD
:1036D00000000000AAAAAAAA00000000FFFF000044
:1036E00000000000000000000000000000000000DA
:1036F000AAAAAAAA00000000FFFF00000000000024
:10370000000000000000000000000000AAAAAAAA11
:1037100000000000FFFF00000000000000000000AB
:103720000000000000000000AAAAAAAA00000000F1
:10373000FFFF00000000000000000000000000008B
:10374000000000000A00000000000000030000006C
:103750000000000000000000000000000000000069
:103760000000000000000000000000000000000059
:1037700000000000000000003A040000000000000B
:1037800000400F0000000000FF009600000000084D
:10379000009600000000080004000000EC3500085E
:1037A0000000000000000000000000000000000019
:1037B0000000000000000000FFFFFFFFFFFFFFFF11
:1037C000FFFFFFFFFFFFFFFFFFFFFFFFFFFFFFFF09
:1037D000FFFFFFFFFFFFFFFFFFFFFFFFFFFFFFFFF9
:1037E000FFFFFFFFFFFFFFFFFFFFFFFFFFFFFFFFE9
:1037F000FFFFFFFFFFFFFFFFFFFFFFFFFFFFFFFFD9
:10C0000000060020C5D2000851120A08AD110A0826
:10C0100019120A08AD110A08E5110A08C7D200086A
:10C02000C7D20008C7D20008C7D20008152D0C08D7
:10C03000C7D20008C7D20008C7D20008C7D200087C
:10C04000C7D20008C7D20008C7D20008C7D200086C
:10C05000C7D20008C7D200088D380C08B5380C08C4
:10C06000DD380C0805390C082D390C08FDE10B08EA
:10C0700025E20B0851E20B087DE20B08A9E20B0850
:10C08000D1E20B08FDE20B0881E10B08C7D20008E2
:10C09000C7D20008C7D20008C7D2000855390C081B
:10C0A000C7D20008C7D20008C7D20008C7D200080C
:10C0B000C7D20008A13A0C08B53A0C08C7D200084C
:10C0C000C7D200088DE80B0835EA0B08C7D2000874
:10C0D000C7D20008293A0C083D3A0C08513A0C081E
:10C0E000B9390C08C7D20008C7D20008D93A0C08E1
:10C0F000DD3A0C08F13A0C08F53A0C0829E30B0874
:10C10000C7D20008C7D20008C93A0C08C7D2000835
:10C11000653A0C08793A0C08C7D20008C7D2000863
:10C1200055E30B087DE30B08A9E30B08D5E30B08E7
:10C1300001E40B08C7D20008C7D20008C7D2000824
:10C14000C7D20008C7D20008C7D2000839340C088B
:10C1500029E40B0855E40B0881E40B088D3A0C0820
:10C16000C7D20008C7D20008C7D20008C7D200084B
:10C17000C7D20008C7D20008C7D20008C7D200083B
:10C18000C7D20008C7D20008C7D20008C7D200082B
:10C19000C7D20008C7D20008C7D20008C7D200081B
:10C1A000C7D20008C7D20008C7D20008C7D200080B
:10C1B000C7D20008C7D20008C7D20008C7D20008FB
:10C1C000C7D20008C7D20008C7D20008C7D20008EB
:10C1D000C7D20008C7D20008C7D20008C7D20008DB
:10C1E0001583010811B3010819380208E584020813
:10C1F000750503089974040855FA050865000608D2
:10C20000297D060835DE060811E6060845E9060818
:10C2100009470708A963070815EF07081D5E080806
:10C22000316B080815040A08CD080A0885D50A08E4
:10C23000BD340B08A9580B0825630B08D98E0B08D1
:10C2400089940B08000000000000000000000000BE
:10C2500000000000000000000000000000000000DE
:10C2600000000000000000000000000000000000CE
:10C2700000000000000000000000000000000000BE
:10C2800081F0004102E000BF83F0004330B54FEA87
:10C2900041044FEA430594EA050F08BF90EA020FF4
:10C2A0001FBF54EA000C55EA020C7FEA645C7FEA87
:10C2B000655C00F0E2804FEA5454D4EB5555B8BFAA
:10C2C0006D420CDD2C4480EA020281EA030382EA1B
:10C2D000000083EA010180EA020281EA0303362DAD
:10C2E00088BF30BD11F0004F4FEA01314FF4801C80
:10C2F0004CEA113102D0404261EB410113F0004F92
:10C300004FEA03334CEA133302D0524263EB430348
:10C3100094EA050F00F0A780A4F10104D5F1200EE6
:10C320000DDB02FA0EFC22FA05F2801841F1000141
:10C3300003FA0EF2801843FA05F359410EE0A5F115
:10C3400020050EF1200E012A03FA0EFC28BF4CF046
:10C35000020C43FA05F3C01851EBE37101F00045FC
:10C3600007D54FF0000EDCF1000C7EEB00006EEB09
:10C370000101B1F5801F1BD3B1F5001F0CD3490893
:10C380005FEA30004FEA3C0C04F101044FEA4452EA
:10C3900012F5800F80F09A80BCF1004F08BF5FEA71
:10C3A000500C50F1000041EB045141EA050130BD51
:10C3B0005FEA4C0C404141EB0101013C28BFB1F563
:10C3C000801FE9D291F0000F04BF01460020B1FAAE
:10C3D00081F308BF2033A3F10B03B3F120020CDA81
:10C3E0000C3208DD02F1140CC2F10C0201FA0CF05F
:10C3F00021FA02F10CE002F11402D8BFC2F1200CC4
:10C4000001FA02F120FA0CFCDCBF41EA0C01904079
:10C41000E41AA2BF01EB0451294330BD6FEA0404C2
:10C420001F3C1CDA0C340EDC04F11404C4F12002AD
:10C4300020FA04F001FA02F340EA030021FA04F3BF
:10C4400045EA030130BDC4F10C04C4F1200220FA16
:10C4500002F001FA04F340EA0300294630BD21FA54
:10C4600004F0294630BD94F0000F83F4801306BF1A
:10C4700081F480110134013D4EE77FEA645C18BF0E
:10C480007FEA655C29D094EA050F08BF90EA020FA5
:10C4900005D054EA000C04BF1946104630BD91EA9D
:10C4A000030F1EBF0021002030BD5FEA545C05D1A0
:10C4B0004000494128BF41F0004130BD14F58004DF
:10C4C0003CBF01F5801130BD01F0004545F0FE4153
:10C4D00041F470014FF0000030BD7FEA645C1ABF88
:10C4E000194610467FEA655C1CBF0B46024650EABF
:10C4F000013406BF52EA033591EA030F41F40021EB
:10C5000030BD00BF90F0000F04BF0021704730B570
:10C510004FF4806404F132044FF000054FF0000145
:10C5200050E700BF90F0000F04BF0021704730B506
:10C530004FF4806404F1320410F0004548BF4042DB
:10C540004FF000013EE700BF42004FEAE2014FEA30
:10C5500031014FEA02701FBF12F07F4393F07F4F0B
:10C5600081F06051704732F07F4208BF704793F00E
:10C570007F4F04BF41F40021704730B54FF4607421
:10C5800001F0004521F000411CE700BF50EA010224
:10C5900008BF704730B54FF000050AE050EA0102CD
:10C5A00008BF704730B511F0004502D5404261EB3D
:10C5B00041014FF4806404F132045FEA915C3FF47E
:10C5C000D8AE4FF003025FEADC0C18BF03325FEA1B
:10C5D000DC0C18BF033202EBDC02C2F1200300FACC
:10C5E00003FC20FA02F001FA03FE40EA0E0021FAF1
:10C5F00002F11444BDE600BF70B54FF0FF0C4CF4DF
:10C60000E06C1CEA11541DBF1CEA135594EA0C0F90
:10C6100095EA0C0F00F0DEF82C4481EA030621EACB
:10C620004C5123EA4C5350EA013518BF52EA033506
:10C6300041F4801143F4801338D0A0FB02CE4FF0B8
:10C640000005E1FB02E506F00042E0FB03E54FF0E8
:10C650000006E1FB03569CF0000F18BF4EF0010EE0
:10C66000A4F1FF04B6F5007F64F5407404D25FEADC
:10C670004E0E6D4146EB060642EAC62141EA55518F
:10C680004FEAC52040EA5E504FEACE2EB4F1FD0CD1
:10C6900088BFBCF5E06F1ED8BEF1004F08BF5FEA4F
:10C6A000500E50F1000041EB045170BD06F0004601
:10C6B00046EA010140EA020081EA0301B4EB5C04AE
:10C6C000C2BFD4EB0C0541EA045170BD41F48011A6
:10C6D0004FF0000E013C00F3AB8014F1360FDEBFCB
:10C6E000002001F0004170BDC4F10004203C35DAA7
:10C6F0000C341BDC04F11404C4F1200500FA05F32A
:10C7000020FA04F001FA05F240EA020001F00042CA
:10C7100021F0004110EBD37021FA04F642EB060140
:10C720005EEA430E08BF20EAD37070BDC4F10C046A
:10C73000C4F1200500FA04F320FA05F001FA04F22E
:10C7400040EA020001F0004110EBD37041F100011A
:10C750005EEA430E08BF20EAD37070BDC4F1200525
:10C7600000FA05F24EEA020E20FA04F301FA05F28D
:10C7700043EA020321FA04F001F0004121FA04F235
:10C7800020EA020000EBD3705EEA430E08BF20EA05
:10C79000D37070BD94F0000F0FD101F0004640003F
:10C7A00041EB010111F4801F08BF013CF7D041EAC1
:10C7B000060195F0000F18BF704703F000465200C5
:10C7C00043EB030313F4801F08BF013DF7D043EA96
:10C7D0000603704794EA0C0F0CEA135518BF95EA4C
:10C7E0000C0F0CD050EA410618BF52EA4306D1D1D3
:10C7F00081EA030101F000414FF0000070BD50EAF2
:10C80000410606BF1046194652EA430619D094EA7B
:10C810000C0F02D150EA013613D195EA0C0F05D165
:10C8200052EA03361CBF104619460AD181EA0301B9
:10C8300001F0004141F0FE4141F470014FF0000071
:10C8400070BD41F0FE4141F4780170BD70B54FF00C
:10C85000FF0C4CF4E06C1CEA11541DBF1CEA13558C
:10C8600094EA0C0F95EA0C0F00F0A7F8A4EB05046E
:10C8700081EA030E52EA03354FEA013100F0888065
:10C880004FEA03334FF0805545EA131343EA12632E
:10C890004FEA022245EA111545EA10654FEA0026E3
:10C8A0000EF000419D4208BF964244F1FD0404F59C
:10C8B000407402D25B084FEA3202B61A65EB0305F8
:10C8C0005B084FEA32024FF480104FF4002CB6EBB5
:10C8D000020E75EB030E22BFB61A754640EA0C0035
:10C8E0005B084FEA3202B6EB020E75EB030E22BF75
:10C8F000B61A754640EA5C005B084FEA3202B6EBB6
:10C90000020E75EB030E22BFB61A754640EA9C0074
:10C910005B084FEA3202B6EB020E75EB030E22BF44
:10C92000B61A754640EADC0055EA060E18D04FEA02
:10C93000051545EA16754FEA06164FEAC30343EAA2
:10C9400052734FEAC2025FEA1C1CC0D111F4801F6F
:10C950000BD141EA00014FF000004FF0004CB6E768
:10C9600011F4801F04BF01430020B4F1FD0C88BF07
:10C97000BCF5E06F3FF6AFAEB5EB030C04BFB6EB12
:10C98000020C5FEA500C50F1000041EB045170BD05
:10C990000EF0004E4EEA113114EB5C04C2BFD4EB32
:10C9A0000C0541EA045170BD41F480114FF0000EB6
:10C9B000013C90E645EA060E8DE60CEA135594EA32
:10C9C0000C0F08BF95EA0C0F3FF43BAF94EA0C0F35
:10C9D0000AD150EA01347FF434AF95EA0C0F7FF4AA
:10C9E00025AF104619462CE795EA0C0F06D152EAFE
:10C9F00003353FF4FDAE1046194622E750EA4106E2
:10CA000018BF52EA43067FF4C5AE50EA41047FF4F2
:10CA10000DAF52EA43057FF4EBAE12E74FF0FF3C57
:10CA200006E000BF4FF0010C02E000BF4FF0010C28
:10CA30004DF804CD4FEA410C7FEA6C5C4FEA430CA1
:10CA400018BF7FEA6C5C1BD001B050EA410C0CBFF0
:10CA500052EA430C91EA030F02BF90EA020F002052
:10CA6000704710F1000F91EA030F58BF994208BFB9
:10CA700090422CBFD8176FEAE37040F00100704776
:10CA80004FEA410C7FEA6C5C02D150EA013C07D1CD
:10CA90004FEA430C7FEA6C5CD6D152EA033CD3D018
:10CAA0005DF8040B704700BF8446104662468C4612
:10CAB0001946634600E000BF01B5FFF7B7FF002845
:10CAC00048BF10F1000F01BD4DF808EDFFF7F4FF6E
:10CAD0000CBF012000205DF808FB00BF4DF808EDF9
:10CAE000FFF7EAFF34BF012000205DF808FB00BF1C
:10CAF0004DF808EDFFF7E0FF94BF012000205DF83E
:10CB000008FB00BF4DF808EDFFF7CEFF94BF0120F2
:10CB100000205DF808FB00BF4DF808EDFFF7C4FFEB
:10CB200034BF012000205DF808FB00BF4FEA410C34
:10CB30007FEA6C5C02D150EA013C0AD14FEA430C17
:10CB40007FEA6C5C02D152EA033C02D14FF0000054
:10CB500070474FF0010070474FEA410212F5001292
:10CB600015D211D56FF47873B3EB625212D94FEA34
:10CB7000C12343F0004343EA505311F0004F23FA1E
:10CB800002F018BF404270474FF00000704750EA73
:10CB9000013005D111F0004008BF6FF00040704730
:10CBA0004FF00000704700BF4A0011D212F500128A
:10CBB00011D20DD56FF47873B3EB62520ED44FEAF5
:10CBC000C12343F0004343EA505323FA02F0704775
:10CBD0004FF00000704750EA013002D14FF0FF30B3
:10CBE00070474FF0000070474FEA4102B2F1E04356
:10CBF00024BFB3F5001CDCF1FE5C0DD901F0004C44
:10CC00004FEAC0024CEA5070B2F1004F40EB830093
:10CC100008BF20F00100704711F0804F21D113F1BF
:10CC20003872BCBF01F00040704741F480114FEAF8
:10CC30005252C2F11802C2F1200C10FA0CF320FA81
:10CC400002F018BF40F001004FEAC1234FEAD3239E
:10CC500003FA0CFC40EA0C0023FA02F34FEA430308
:10CC6000CCE77FEA625307D150EA01331EBF4FF091
:10CC7000FE4040F44000704701F0004040F0FE40AC
:10CC800040F40000704700BF80F0004002E000BFA9
:10CC900081F0004142001FBF5FEA410392EA030FA7
:10CCA0007FEA226C7FEA236C6AD04FEA1262D2EBF1
:10CCB0001363C1BFD218414048404140B8BF5B42F6
:10CCC000192B88BF704710F0004F40F4000020F08F
:10CCD0007F4018BF404211F0004F41F4000121F0A5
:10CCE0007F4118BF494292EA030F3FD0A2F10102EF
:10CCF00041FA03FC10EB0C00C3F1200301FA03F12D
:10CD000000F0004302D5494260EB4000B0F5000F4F
:10CD100013D3B0F1807F06D340084FEA310102F10E
:10CD20000102FE2A51D2B1F1004F40EBC25008BFC0
:10CD300020F0010040EA03007047490040EB00008A
:10CD4000013A28BFB0F5000FEDD2B0FA80FCACF18B
:10CD5000080CB2EB0C0200FA0CF0AABF00EBC250B8
:10CD600052421843BCBFD0401843704792F0000FA6
:10CD700081F4000106BF80F400000132013BB5E7F9
:10CD80004FEA41037FEA226C18BF7FEA236C21D06F
:10CD900092EA030F04D092F0000F08BF08467047D4
:10CDA00090EA010F1CBF0020704712F07F4F04D1A2
:10CDB000400028BF40F00040704712F100723CBFB5
:10CDC00000F50000704700F0004343F0FE4040F4DF
:10CDD000000070477FEA226216BF08467FEA23639D
:10CDE0000146420206BF5FEA412390EA010F40F488
:10CDF000800070474FF0000304E000BF10F00043D4
:10CE000048BF40425FEA000C08BF704743F09643BA
:10CE100001464FF000001CE050EA010208BF7047D5
:10CE20004FF000030AE000BF50EA010208BF70475C
:10CE300011F0004302D5404261EB41015FEA010C71
:10CE400002BF84460146002043F0B64308BFA3F169
:10CE50008053A3F50003BCFA8CF2083AA3EBC2534B
:10CE600010DB01FA02FC634400FA02FCC2F120026A
:10CE7000BCF1004F20FA02F243EB020008BF20F0A1
:10CE80000100704702F1200201FA02FCC2F1200207
:10CE900050EA4C0021FA02F243EB020008BF20EAFC
:10CEA000DC7070477BB972B90029BEBF00204FF01B
:10CEB000004106E008BF00281CBF6FF000414FF0A2
:10CEC000FF3000F0FDB9ADF1080C6DE904CE00298A
:10CED00009DB002B1ADB00F095F8DDF804E0DDE952
:10CEE000022304B07047404261EB4101002B1BDB81
:10CEF00000F088F8DDF804E0DDE9022304B04042E8
:10CF000061EB4101524263EB43037047524263EBD2
:10CF1000430300F077F8DDF804E0DDE9022304B014
:10CF2000404261EB41017047524263EB430300F022
:10CF300069F8DDF804E0DDE9022304B0524263EB56
:10CF40004303704753B94AB9002908BF00281CBFE2
:10CF50004FF0FF314FF0FF3000F0B2B9ADF1080CE7
:10CF60006DE904CE00F04EF8DDF804E0DDE90223BF
:10CF700004B07047430803F05533C01A830803F028
:10CF8000333300F03330184400EB101000F00F3052
:10CF900000EB002000EB0040000E704707EE900A07
:10CFA000F5EEC07AF1EE10FA01D400F00BB8F1EE14
:10CFB000677A08B517EE900A00F004F8404261EB7A
:10CFC000410108BDD0B5FFF7BFFA0C4B0022064661
:10CFD0000F46FFF711FBFFF7E7FD0446FFF792FA54
:10CFE000074B0022FFF708FB02460B463046394646
:10CFF000FFF74AF9FFF7D8FD2146D0BD0000F03D0C
:10D000000000F0412DE9F047089D0E4604460F460A
:10D01000002B4AD194468C45B2FA82F260D942B1D3
:10D02000C2F12003974020FA03F30CFA02FC1F43DD
:10D0300094404FEA1C4E1FFA8CF6B7FBFEF1230C0E
:10D040000EFB117743EA074301FB06F098420AD929
:10D050001CEB030301F1FF3780F01581984240F289
:10D060001281023963441B1AA4B2B3FBFEF00EFB1B
:10D07000103344EA034400FB06F6A6420AD91CEB2F
:10D08000040400F1FF3380F00081A64240F2FD80ED
:10D090006444023840EA0140A41B00211DB1D44081
:10D0A0000023C5E90043BDE8F0878B4205D90DB1E7
:10D0B000C5E9000100210846F5E7B3FA83F100292C
:10D0C00046D1B34202D3824200F2F580841A66EB65
:10D0D000030201201746002DE5D0C5E90047E2E72D
:10D0E000002A40F09380A1EB0C034FEA1C471FFA83
:10D0F0008CFE0121B3FBF7F607FB1630230C43EA45
:10D1000000430EFB06F0984208D91CEB030306F11E
:10D11000FF3802D2984200F2D08046461B1AA4B2D1
:10D12000B3FBF7F007FB103344EA03440EFB00FEA9
:10D13000A64508D91CEB040400F1FF3302D2A64532
:10D1400000F2B6801846A4EB0E0440EA0640A5E7BC
:10D15000C1F120078B4022FA07FC4CEA030C06FAC7
:10D1600001FE20FA07F426FA07F344EA0E0400FA57
:10D1700001F84FEA1C404FEA1449B3FBF0FE1FFAD6
:10D180008CF600FB1E3349EA03430EFB06F9994572
:10D1900002FA01F20BD91CEB03030EF1FF3A80F007
:10D1A0008580994540F28280AEF1020E6344A3EB84
:10D1B0000909A4B2B9FBF0F300FB139944EA09444E
:10D1C00003FB06F6A64208D91CEB040403F1FF306A
:10D1D00068D2A64266D9023B644443EA0E40A41BCF
:10D1E000A0FB02E6B4427346B14652D34FD05DB1C4
:10D1F000B8EB030264EB090404FA07F722FA01F31F
:10D200001F43CC40C5E9007400214CE7C2F1200166
:10D2100020FA01F30CFA02FC26FA01F1964033439E
:10D220004FEA1C471FFA8CFEB1FBF7F007FB101604
:10D23000190C41EA064100FB0EF68E4204FA02F494
:10D2400008D91CEB010100F1FF382DD28E422BD9F9
:10D2500002386144891B9BB2B1FBF7F607FB16113C
:10D2600043EA014306FB0EF1994208D91CEB030384
:10D2700006F1FF3814D2994212D9023E63445B1A78
:10D2800046EA004136E73946EDE6184602E7F04542
:10D29000ADD2BEEB020366EB0C060138B146A6E741
:10D2A0004646ECE7034698E74046D3E7D6467EE796
:10D2B0006444023847E708460DE7023E63442DE721
:10D2C000704700BF02E000F000F8FEE772B6374892
:10D2D00080F30888364880F3098836483649086064
:10D2E00040F20000CCF200004EF63471CEF20001A4
:10D2F0000860BFF34F8FBFF36F8F40F20000C0F2A2
:10D30000F0004EF68851CEF200010860BFF34F8F57
:10D31000BFF36F8F4FF00000E1EE100A4EF63C7144
:10D32000CEF200010860062080F31488BFF36F8FEF
:10D33000B5F04EFDB4F036FE4FF055301F491B4A94
:10D3400091423CBF41F8040BFAE71D49184A91424B
:10D350003CBF41F8040BFAE71A491B4A1B4B9A429F
:10D360003EBF51F8040B42F8040BF8E700201849BF
:10D37000184A91423CBF41F8040BFAE7B5F02CFD86
:10D38000B4F062FE144C154DAC4203DA54F8041BA1
:10D390008847F9E70AF0AEFF114C124DAC4203DAB0
:10D3A00054F8041B8847F9E7B5F014BD00060020C7
:10D3B0000022002000C0000808ED00E0000000206E
:10D3C00000060020C03E0E0800220020BC2B0020DA
:10D3D000C02B002008550120E0C1000844C200080D
:10D3E00044C2000844C200082DE9F04F2DED108A18
:10D3F000C1F80CD0C3689D46BDEC108ABDE8F08F23
:10D40000002383F311882846A0470020B4F052FB84
:10D41000FEE7B4F0E5F900DFFEE7000038B510EEF6
:10D42000105A25F00044B4F1A14FF0EE407A0DD32C
:10D43000B4F1FF4F58D8DFED4F7A9FED4F7A002DB2
:10D44000CCBFB0EE470AB0EE670A38BD4B4B9C42EA
:10D4500059D8B4F1445F4AD34FF0FF3227EEA76AA0
:10D460009FED475A9FED477ADFED475ADFED474A78
:10D4700066EE066A531CA6EE857AE6EEA54A9FED97
:10D48000445ADFED445AA7EE265AE4EEA65A9FED21
:10D49000427ADFED424AA5EE267AE5EEA64A9FEDF6
:10D4A000405ADFED405AA7EE265A9FED3F7AA4EE90
:10D4B000A67AE5EE265A27EE267AA5EE867A27EE9C
:10D4C000877A35D0394B03EB820393ED046AD3EDB1
:10D4D000006A37EE467A002D37EE677A36EEC70AD5
:10D4E000B3DAB1EE400A38BD30EE000A38BD9FED28
:10D4F000307A30EE077AF7EE006AB4EEE67AF1EEB3
:10D5000010FAA9DD38BD00F07DF82A4B9C4212D8F4
:10D51000A3F5D0039C4223D8F0EE007ABFEE007A48
:10D52000A0EE277A002230EE270AC7EE007A95E7B0
:10D5300037EEC70A38BD204B9C420BD8F7EE087A6D
:10D54000B7EE007AA0EE277A022230EE670AC0EE2C
:10D55000077A83E7BFEE007AC7EE007A03227DE701
:10D56000F7EE007A30EE677A30EE270A0122C7EE36
:10D57000007A73E7DB0FC9BFDB0FC93FFFFFDF3E58
:10D58000D769853C59DA4B3D21A215BD6BF16EBDC3
:10D59000356B883D95879DBD6E2EBA3D388EE3BDB7
:10D5A0002549123EABAAAA3ECDCC4CBE98450C08EC
:10D5B000CAF24971FFFF973FFFFF1B4008B52DEDF1
:10D5C000028BF0EE408AB0EE608A00F09DF8F4EE37
:10D5D000488AF1EE10FA06D6DFED098AB4EE688AC1
:10D5E000F1EE10FA02D0BDEC028B08BD04F06CFA2B
:10D5F00088EEA80ABDEC028B2123036008BD00BFA2
:10D600000000000010EE103A23F0004300EE103A44
:10D61000704700BF08B52DED028BF0EE408AB0EEEA
:10D62000608A00F075FE20B9B0EE480ABDEC028BAE
:10D6300008BDB0EE480A00F06BFE20B1F4EEC88AD7
:10D64000F1EE10FAF0D5B0EE680ABDEC028B08BD21
:10D6500008B52DED028BB0EE408A01F073F9B4EEFF
:10D66000488AF1EE10FA0FD6B5EEC08AF1EE10FA44
:10D670000ADCB5EE408AF1EE10FA08D104F024FA83
:10D6800022239FED090A0360BDEC028B08BD04F064
:10D690001BFABDEC028B034621221A600348BDE849
:10D6A000084000F013BB00BF000080FF7C400D0865
:10D6B00008B52DED028BB0EE408A00F007F9B4EE0C
:10D6C000488AF1EE10FAF0EE408A0AD6B0EE480A27
:10D6D000FFF798FFF7EE007AB4EEE70AF1EE10FAE2
:10D6E00004DCB0EE680ABDEC028B08BD04F0ECF976
:10D6F000BDEC028B034621221A600248BDE80840B7
:10D7000000F0E4BA7C400D0830B583B0CDED010ADD
:10D71000019A22F0004E0EF1FF33B3F1FF4F42D2D7
:10D7200010EE104A24F00040B0F1FF4F3BD270459C
:10D730003FDB04F000413ED014F0FF4F02F0FF4504
:10D7400058D14FEA002C6FF07D034FEA4C0CBCF12E
:10D75000000F03F1FF33F8DC002D5CD14FEA0E22FD
:10D760006FF07D0C52000CF1FF3CFBD513F17E0FE6
:10D7700063DA6FF07D02D21A90406FF07D02A2EB67
:10D780000C020EFA02F2B3EB0C0305D11AE012D030
:10D790004FEA4E00013B15D0A0EB020EBEF1000F88
:10D7A000F5DA4000F6E7DDED017A60EE277A87EEE4
:10D7B000A70A03B030BD234B03EB517393ED000A6E
:10D7C00003B030BD831A48BF03461BB9F3E75B00C3
:10D7D0000CF1FF3CB3F5000FF9DB1CF17E0F23DBEE
:10D7E000A3F500030CF17F0C0B4343EACC5300EE8E
:10D7F000103ADEE7C3157F3B002DAFD04FEAEE5E57
:10D80000C4F31604AEF17F0C44F40000C2F3160218
:10D8100042F40002B7E76FF07D044FEAEE5EE41ACF
:10D82000AEF17F0CA040F1E76FF07D02A2EB0C029D
:10D8300013410B4300EE103ABBE7C4F3160444F463
:10D8400000009AE7B8450C0808B5FFF701FFDFEDC7
:10D85000027A80EE270A08BD1872313F10EE103AA6
:10D86000184923F000428A421AD9B2F1FF4F02D37D
:10D8700030EE400A704700B583B0684600F052FEB3
:10D8800000F003000128DDED010A9DED000A10D033
:10D89000022809D090B900F003FB03B05DF804FB47
:10D8A000DFED090A00F0FCBA00F0FAFAB1EE400A26
:10D8B000F3E700F0EFFDB1EE400AEEE7012000F0E3
:10D8C000E9FDEAE7D80F493F0000000008B510EE77
:10D8D000102A22F00043B3F17E5F2DED028B12D0AF
:10D8E0000AD8B3F17C5F19D2B3F10C5F6AD8BDECF2
:10D8F000028B9FED760A08BD70EE407A87EEA70A8C
:10D90000BDEC028B08BDBDEC028B9FED710ADFED13
:10D91000717A002AC8BFB0EE670A08BD002AC0F2BB
:10D920008E80F7EE008A38EEC00AF6EE007A20EE1E
:10D93000278AB0EE480A01F01DFCDFED677A9FED03
:10D94000677ADFED676ADFED675A9FED676AA8EED9
:10D95000277ADFED667AE7EE086AE8EE067AE6EE09
:10D96000885A9FED636A9FED637ADFED636AA5EEE7
:10D97000886AA7EE887ADFED617AE6EE087A10EE23
:10D98000103AE7EE086A6FF30B03B0EE677A07EE22
:10D99000903AF0EE485AE7EEE75AE6EE888A30EE23
:10D9A000276A27EE087AC5EE866A87EE286ABDECFC
:10D9B000028BB0EE667AA0EE067A37EE870A30EE7A
:10D9C000000A08BD20EE007ADFED437A9FED436A3E
:10D9D000DFED436A9FED445ADFED425AA7EE276A16
:10D9E000BDEC028BE6EE076ADFED407A9FED416AFF
:10D9F000E7EE057AE6EE875AA7EE876A9FED3C5A76
:10DA0000DFED3D7ADFED3D6AA5EE875AE6EE077A57
:10DA1000E5EE076AF7EE005AE7EE875A26EE877AB8
:10DA20009FED376ADFED377AC7EE256AB0EE467AAA
:10DA3000A0EE667A30EE470A37EEC00A08BDB7EEB0
:10DA4000007A30EE070AF6EE007A60EE277ADFED14
:10DA5000226A9FED226ADFED224ADFED235A9FED15
:10DA6000215A9FED268AA7EEA66ADFED206AE6EE30
:10DA7000274AE7EEA56ADFED1F5A9FED1D6AA4EE67
:10DA8000A75AE6EEA75ADFED1C6AA5EE276AE5EE77
:10DA9000A76AA6EE278AA6EEA77A28EE278AF0EED6
:10DAA000478AB0EE670A01F065FB88EE286A9FEDB1
:10DAB000167ADFED167AA0EE067AF0EE006A37EEFF
:10DAC000007AE7EE667AB0EE670A19E7DB0FC93F26
:10DAD000DB0F49400000000008EF1138047F4F3A87
:10DAE000461124BDA80A4E3E2EC69D3D613330BF6F
:10DAF00090B0A6BE2D57014039D119C0ABAA2A3E1D
:10DB00006821A233DA0FC93F6821A2B3DA0F494076
:10DB100008B52DED028BB0EE408A01F02BFBB4EE80
:10DB2000488AF1EE10FA06D6DFED098AB4EEE88AEB
:10DB3000F1EE10FA02D4BDEC028B08BD03F0C4FF75
:10DB400088EEA80ABDEC028B2123036008BD00BF4C
:10DB50000000000000F0F8BB08B52DED028BF0EEE0
:10DB6000408AB0EE608A00F0D3FB20B9B0EE480ADC
:10DB7000BDEC028B08BDB0EE480A00F0C9FB20B135
:10DB8000F4EEC88AF1EE10FAF0DDB0EE680ABDECF2
:10DB9000028B08BD10EE103A114A23F00043934265
:10DBA00018D9B3F1FF4F02D330EE400A704700B5E9
:10DBB00083B0684600F0B6FC400000F00200DDEDE6
:10DBC000010A9DED000AC0F1010000F0DBFD03B089
:10DBD0005DF804FBDFED030A012000F0D3BD00BFB8
:10DBE000DA0F493F0000000010EE103AC3F3C752AD
:10DBF0007F3A162A194615DC002A0CDB0C48104126
:10DC0000184205D04FF4800313410B4423EA00036C
:10DC100000EE103A7047013203F00043F8D143F0B0
:10DC20007E53F5E7802AF3D130EE000A704700BF3B
:10DC3000FFFF7F0010B485B08DED010A019BC3F397
:10DC4000C752A2F17F011E2931DC16294FEAD37495
:10DC500025DC1D4BDDED017A03EB840393ED007AA7
:10DC600077EE277ACDED037ADDED037A77EEC77A8A
:10DC700017EE903A33F000400DD0C3F3C7507F3811
:10DC80001FD4C3F3160343F40003C0F1170023FAB3
:10DC900000F004B1404205B05DF8044B7047C3F397
:10DCA000160343F40003963A03FA02F0F1E7DDEDC0
:10DCB000017AFDEEE77A17EE900A05B05DF8044BA5
:10DCC00070470020E5E700BFC0450C089FED010A42
:10DCD000704700BF0000C07F08B52DED048BB0EE8B
:10DCE000608AB0EE409A01F049FAB4EE488AF1EE4B
:10DCF00010FAF0EE408A0BD6B5EE409AF1EE10FA2B
:10DD000017D1B5EE408AF1EE10FA06D1F7EE008A8F
:10DD1000B0EE680ABDEC048B08BDB0EE480A00F016
:10DD2000EDFA0028F4D0B5EEC08AF1EE10FAEFD586
:10DD300025E000F0E3FA88B1F5EE408AF1EE10FA42
:10DD4000E6D1B0EE490A00F0D9FA0028E0D0B0EEF2
:10DD5000480A00F0D3FA0028DAD010E0B0EE490A01
:10DD600000F0CCFA0028E7D0B0EE480A00F0C6FA7E
:10DD70000028E1D0F4EE688AF1EE10FA04D603F040
:10DD8000A3FE22230360C3E703F09EFE212303606A
:10DD9000BEE700BF10EE102AC2F3C7537F3B162B1D
:10DDA00022F0004132DC002B104618DB1A491941E1
:10DDB0000A422AD0DFED197A70EE277AF5EEC07AA2
:10DDC000F1EE10FA21DD002A04DD4FF4000242FAE0
:10DDD00003F3184420EA010300EE103A7047DFED28
:10DDE0000F7A70EE277AF5EEC07AF1EE10FA0CDDBC
:10DDF000002A08DBDFED0A7A0029B7EE000A08BF27
:10DE0000B0EE670A70479FED070A7047B1F1FF4F08
:10DE1000FBD330EE000A7047FFFF7F00CAF2497162
:10DE2000000000000000008008B52DED028BB0EE70
:10DE3000408A01F057FDF0EE408AB0EE480A00F04B
:10DE40005DFA68B1DFED127AB4EEE78AF1EE10FA0E
:10DE50000BDCDFED107AB4EEE78AF1EE10FA0FD4A6
:10DE6000B0EE680ABDEC028B08BDDFED0B8A03F053
:10DE70002BFEB0EE680ABDEC028B2223036008BDC6
:10DE800003F022FE2223DFED058A0360E8E700BFEE
:10DE90001772B142B5F1CFC20000807F00000000D0
:10DEA00010EE103A23F00043B3F1485F2CD2FDEEA0
:10DEB000C07A17EE903A002B60D060EE007A9FEDAA
:10DEC000317A9FED315ADFED315A9FED316ADFED46
:10DED000316AA7EE875A9FED307AE7EE855AA7EEB2
:10DEE000A56AA7EE867AE7EE876A67EEA66A60EE15
:10DEF000C00AB6EE007AE7EEA60AB7EE000AD7EE41
:10DF0000870A30EE600A704760EE007A9FED1D7A56
:10DF10009FED1D5ADFED1D5A9FED1D6ADFED1D6A55
:10DF20001E4AA7EE875A93429FED1B7AE5EE275AC9
:10DF3000A5EEA76AA6EE277AE7EE276A66EEA76A3D
:10DF4000D5D9174A934214D803F17F4307EE103A0C
:10DF5000B7EE006A36EE476A60EEC00AF6EE005A87
:10DF600097EEA57AE7EEA60A37EE607A36EE470A14
:10DF70007047B6EE076AB5EE027AEDE7B7EE000A33
:10DF8000704700BF4ED747ADF6740F317CF293B4A3
:10DF9000010DD037ABAA2A3D610BB6BA9999993ECB
:10DFA0000000483F10EE102AC2F3C7537F3B162BE8
:10DFB00022F0004129DC002B104618DB1A491941D8
:10DFC0000A4221D0DFED197A70EE277AF5EEC07A99
:10DFD000F1EE10FA18DD002A04DA4FF4000242FADA
:10DFE00003F3184420EA010300EE103A7047DFED16
:10DFF0000F7A70EE277AF5EEC07AF1EE10FA03DDB3
:10E00000002A08DB9FED0A0A7047B1F1FF4FFBD3EE
:10E0100030EE000A7047DFED077A0029BFEE000AF4
:10E0200008BFB0EE670A7047FFFF7F00CAF2497170
:10E03000000000000000008010EE103A194923F0A3
:10E0400000428A421BD9B2F1FF4F02D330EE400AA0
:10E05000704700B583B0684600F064FA00F0030032
:10E060000128DDED010A9DED000A13D002280BD036
:10E0700098B9012000F00EFA03B05DF804FBDFED63
:10E080000A0A002000F006BA012000F003FAB1EEFF
:10E09000400AF1E7FFF704FFEEE7FFF701FFB1EEFB
:10E0A000400AE9E7D80F493F0000000008B52DED10
:10E0B000028BB0EE408A00F025F8B4EE488AF1EE0B
:10E0C00010FAF0EE408A0AD6B0EE480AFFF79AFA44
:10E0D000F7EE007AB4EEE70AF1EE10FA04DCB0EEE7
:10E0E000680ABDEC028B08BD03F0EEFCBDEC028BB0
:10E0F000034621221A600248BDE80840FFF7E6BD4A
:10E100007C400D0838B510EE105A25F00044B4F1EB
:10E110007E5F2DED048BF0EE407A7FD077D8B4F19E
:10E120007C5F0ED2B4F1485F80F092809FED637AFD
:10E1300030EE077AF7EE006AB4EEE67AF1EE10FA06
:10E1400062DCB0EE670AFFF75DFAF7EE007A37EEB1
:10E15000C08AB6EE007A28EE078ADFED596A9FED95
:10E16000597A9FED596A9FED595ADFED595ADFED03
:10E17000598AE8EE076A9FED587AA8EE067A9FED75
:10E18000576AA6EE885AA7EE086A9FED557ADFED2A
:10E19000556AE5EE085AA6EE087AE5EE886AE7EEDB
:10E1A000087AE6EE888AB0EE480AB0EE679A00F088
:10E1B000E1FF4D4B9C4268EE888A3AD810EE103A47
:10E1C0006FF30B0306EE903AA6EEE68A70EE267A1F
:10E1D00088EE895AC8EE274A9FED447ADFED447AEB
:10E1E000B0EE006AA4EEC67A30EE000AF0EE675A8E
:10E1F00090EE057AE6EEC65A37EE657A37EEC70A34
:10E20000002D01DCB1EE400ABDEC048B38BDBDEC45
:10E21000048B70EE407A87EEA70A38BDBDEC048B04
:10E220009FED320A9FED337A27EE800AA7EE870A28
:10E2300038BD88EE896A9FED307ADFED2E7AA0EE48
:10E24000060AF0EE006AA0EE267A37EEC70AD7E794
:10E2500020EE007ADFED1B6A9FED196ADFED1B5A95
:10E260009FED195ADFED1A4AA7EE266ABDEC048B22
:10E27000E6EE075ADFED186A9FED186AE7EE056AC9
:10E28000E5EE874AA6EE876A9FED165ADFED145A2F
:10E29000DFED106AA4EE875AE6EE075AE5EE076A4C
:10E2A000B7EE006AA5EE876A26EE877AC7EE066AA1
:10E2B000E0EE267AB0EE670A38BD00BFCAF24971B7
:10E2C000047F4F3A08EF11382EC69D3D461124BDFC
:10E2D000A80A4E3EABAA2A3E613330BF2D570140FB
